{
  "_format": "hh-sol-artifact-1",
  "contractName": "Auction",
  "sourceName": "contracts/Auction.sol",
  "abi": [
    {
      "inputs": [
        {
          "internalType": "uint256",
          "name": "biddingtime",
          "type": "uint256"
        }
      ],
      "stateMutability": "payable",
      "type": "constructor"
    },
    {
      "anonymous": false,
      "inputs": [
        {
          "indexed": false,
          "internalType": "uint256",
          "name": "amount",
          "type": "uint256"
        },
        {
          "indexed": false,
          "internalType": "address",
          "name": "bidder",
          "type": "address"
        }
      ],
      "name": "NewOffer",
      "type": "event"
    },
    {
      "anonymous": false,
      "inputs": [
        {
          "indexed": false,
          "internalType": "uint256",
          "name": "amountSpent",
          "type": "uint256"
        },
        {
          "indexed": false,
          "internalType": "address",
          "name": "highestBidder",
          "type": "address"
        }
      ],
      "name": "endedAuction",
      "type": "event"
    },
    {
      "inputs": [],
      "name": "auctionEnd",
      "outputs": [],
      "stateMutability": "nonpayable",
      "type": "function"
    },
    {
      "inputs": [],
      "name": "auctionEndTime",
      "outputs": [
        {
          "internalType": "uint256",
          "name": "",
          "type": "uint256"
        }
      ],
      "stateMutability": "view",
      "type": "function"
    },
    {
      "inputs": [],
      "name": "bid",
      "outputs": [],
      "stateMutability": "payable",
      "type": "function"
    },
    {
      "inputs": [],
      "name": "getEnded",
      "outputs": [
        {
          "internalType": "bool",
          "name": "",
          "type": "bool"
        }
      ],
      "stateMutability": "view",
      "type": "function"
    },
    {
      "inputs": [
        {
          "internalType": "address",
          "name": "bidder",
          "type": "address"
        }
      ],
      "name": "getRefund",
      "outputs": [
        {
          "internalType": "uint256",
          "name": "",
          "type": "uint256"
        }
      ],
      "stateMutability": "view",
      "type": "function"
    },
    {
      "inputs": [],
      "name": "highestBid",
      "outputs": [
        {
          "internalType": "uint256",
          "name": "",
          "type": "uint256"
        }
      ],
      "stateMutability": "view",
      "type": "function"
    },
    {
      "inputs": [],
      "name": "highestBidder",
      "outputs": [
        {
          "internalType": "address",
          "name": "",
          "type": "address"
        }
      ],
      "stateMutability": "view",
      "type": "function"
    },
    {
      "inputs": [],
      "name": "owner",
      "outputs": [
        {
          "internalType": "address payable",
          "name": "",
          "type": "address"
        }
      ],
      "stateMutability": "view",
      "type": "function"
    },
    {
      "inputs": [],
      "name": "withdraw",
      "outputs": [],
      "stateMutability": "nonpayable",
      "type": "function"
    }
  ],
  "bytecode": "0x6080604052604051610f81380380610f81833981810160405281019061002591906100d4565b80426100319190610130565b60008190555033600160006101000a81548173ffffffffffffffffffffffffffffffffffffffff021916908373ffffffffffffffffffffffffffffffffffffffff1602179055506000600560006101000a81548160ff02191690831515021790555050610164565b600080fd5b6000819050919050565b6100b18161009e565b81146100bc57600080fd5b50565b6000815190506100ce816100a8565b92915050565b6000602082840312156100ea576100e9610099565b5b60006100f8848285016100bf565b91505092915050565b7f4e487b7100000000000000000000000000000000000000000000000000000000600052601160045260246000fd5b600061013b8261009e565b91506101468361009e565b925082820190508082111561015e5761015d610101565b5b92915050565b610e0e806101736000396000f3fe6080604052600436106100865760003560e01c80634b449cba116100595780634b449cba146100ee578063696c58c4146101195780638da5cb5b1461015657806391f9015714610181578063d57bde79146101ac57610086565b80630cc79a851461008b5780631998aeef146100b65780632a24f46c146100c05780633ccfd60b146100d7575b600080fd5b34801561009757600080fd5b506100a06101d7565b6040516100ad9190610890565b60405180910390f35b6100be6101ee565b005b3480156100cc57600080fd5b506100d5610394565b005b3480156100e357600080fd5b506100ec6105e2565b005b3480156100fa57600080fd5b506101036107d4565b60405161011091906108c4565b60405180910390f35b34801561012557600080fd5b50610140600480360381019061013b9190610942565b6107da565b60405161014d91906108c4565b60405180910390f35b34801561016257600080fd5b5061016b610823565b6040516101789190610990565b60405180910390f35b34801561018d57600080fd5b50610196610849565b6040516101a391906109ba565b60405180910390f35b3480156101b857600080fd5b506101c161086f565b6040516101ce91906108c4565b60405180910390f35b6000600560009054906101000a900460ff16905090565b6040518060400160405280601381526020017f5468652041756374696f6e20697320656e642e000000000000000000000000008152506000801515600560009054906101000a900460ff16151514829061027e576040517f08c379a00000000000000000000000000000000000000000000000000000000081526004016102759190610a65565b60405180910390fd5b5060035434116102c3576040517f08c379a00000000000000000000000000000000000000000000000000000000081526004016102ba90610af9565b60405180910390fd5b6000600354146103485760035460046000600260009054906101000a900473ffffffffffffffffffffffffffffffffffffffff1673ffffffffffffffffffffffffffffffffffffffff1673ffffffffffffffffffffffffffffffffffffffff16815260200190815260200160002060008282546103409190610b48565b925050819055505b3460038190555033600260006101000a81548173ffffffffffffffffffffffffffffffffffffffff021916908373ffffffffffffffffffffffffffffffffffffffff1602179055505050565b604051806060016040528060298152602001610db060299139600160009054906101000a900473ffffffffffffffffffffffffffffffffffffffff1673ffffffffffffffffffffffffffffffffffffffff163373ffffffffffffffffffffffffffffffffffffffff16148190610440576040517f08c379a00000000000000000000000000000000000000000000000000000000081526004016104379190610a65565b60405180910390fd5b50604051806060016040528060228152602001610d56602291396000801515600560009054906101000a900460ff1615151482906104b4576040517f08c379a00000000000000000000000000000000000000000000000000000000081526004016104ab9190610a65565b60405180910390fd5b506000544210156104fa576040517f08c379a00000000000000000000000000000000000000000000000000000000081526004016104f190610bc8565b60405180910390fd5b6001600560006101000a81548160ff0219169083151502179055507fa1bd24fa8d09bfd0b89f1fdc27d1d128587c7f1471b8aae81ee0da56726628e1600354600260009054906101000a900473ffffffffffffffffffffffffffffffffffffffff1660405161056a929190610be8565b60405180910390a1600160009054906101000a900473ffffffffffffffffffffffffffffffffffffffff1673ffffffffffffffffffffffffffffffffffffffff166108fc6003549081150290604051600060405180830381858888f193505050501580156105dc573d6000803e3d6000fd5b50505050565b604051806060016040528060388152602001610d78603891396001801515600560009054906101000a900460ff161515148290610655576040517f08c379a000000000000000000000000000000000000000000000000000000000815260040161064c9190610a65565b60405180910390fd5b506000600460003373ffffffffffffffffffffffffffffffffffffffff1673ffffffffffffffffffffffffffffffffffffffff168152602001908152602001600020549050600081116106dd576040517f08c379a00000000000000000000000000000000000000000000000000000000081526004016106d490610c83565b60405180910390fd5b6000600460003373ffffffffffffffffffffffffffffffffffffffff1673ffffffffffffffffffffffffffffffffffffffff1681526020019081526020016000208190555060003373ffffffffffffffffffffffffffffffffffffffff168260405161074890610cd4565b60006040518083038185875af1925050503d8060008114610785576040519150601f19603f3d011682016040523d82523d6000602084013e61078a565b606091505b50509050806107ce576040517f08c379a00000000000000000000000000000000000000000000000000000000081526004016107c590610d35565b60405180910390fd5b50505050565b60005481565b6000600460008373ffffffffffffffffffffffffffffffffffffffff1673ffffffffffffffffffffffffffffffffffffffff168152602001908152602001600020549050919050565b600160009054906101000a900473ffffffffffffffffffffffffffffffffffffffff1681565b600260009054906101000a900473ffffffffffffffffffffffffffffffffffffffff1681565b60035481565b60008115159050919050565b61088a81610875565b82525050565b60006020820190506108a56000830184610881565b92915050565b6000819050919050565b6108be816108ab565b82525050565b60006020820190506108d960008301846108b5565b92915050565b600080fd5b600073ffffffffffffffffffffffffffffffffffffffff82169050919050565b600061090f826108e4565b9050919050565b61091f81610904565b811461092a57600080fd5b50565b60008135905061093c81610916565b92915050565b600060208284031215610958576109576108df565b5b60006109668482850161092d565b91505092915050565b600061097a826108e4565b9050919050565b61098a8161096f565b82525050565b60006020820190506109a56000830184610981565b92915050565b6109b481610904565b82525050565b60006020820190506109cf60008301846109ab565b92915050565b600081519050919050565b600082825260208201905092915050565b60005b83811015610a0f5780820151818401526020810190506109f4565b60008484015250505050565b6000601f19601f8301169050919050565b6000610a37826109d5565b610a4181856109e0565b9350610a518185602086016109f1565b610a5a81610a1b565b840191505092915050565b60006020820190508181036000830152610a7f8184610a2c565b905092915050565b7f416e6f746865722062696420697320686967686572207468616e20796f75727360008201527f2e00000000000000000000000000000000000000000000000000000000000000602082015250565b6000610ae36021836109e0565b9150610aee82610a87565b604082019050919050565b60006020820190508181036000830152610b1281610ad6565b9050919050565b7f4e487b7100000000000000000000000000000000000000000000000000000000600052601160045260246000fd5b6000610b53826108ab565b9150610b5e836108ab565b9250828201905080821115610b7657610b75610b19565b5b92915050565b7f5468652041756374696f6e206973207374696c6c206f70656e00000000000000600082015250565b6000610bb26019836109e0565b9150610bbd82610b7c565b602082019050919050565b60006020820190508181036000830152610be181610ba5565b9050919050565b6000604082019050610bfd60008301856108b5565b610c0a60208301846109ab565b9392505050565b7f596f75206d757374206861766520616e20616d6f756e7420677265617465722060008201527f7468616e203020746f20626520726566756e6400000000000000000000000000602082015250565b6000610c6d6033836109e0565b9150610c7882610c11565b604082019050919050565b60006020820190508181036000830152610c9c81610c60565b9050919050565b600081905092915050565b50565b6000610cbe600083610ca3565b9150610cc982610cae565b600082019050919050565b6000610cdf82610cb1565b9150819050919050565b7f5472616e73666572206661696c65640000000000000000000000000000000000600082015250565b6000610d1f600f836109e0565b9150610d2a82610ce9565b602082019050919050565b60006020820190508181036000830152610d4e81610d12565b905091905056fe41756374696f6e456e642068617320616c7265616479206265656e2063616c6c6564596f75206d757374207761697420756e74696c2074686520656e64206f66207468652061756374696f6e20746f20626520726566756e642e5468652041756374696f6e2068617320746f20626520656e64656420627920746865206f776e65722ea26469706673582212204c223a0cd936f55aaa9396be3b8ddfee8375961683070709cdcc5df921e1fde664736f6c634300081c0033",
  "linkReferences": {},
  "deployedLinkReferences": {}
}